{
  "contractName": "DonatePlatform",
  "abi": [
    {
      "inputs": [],
      "payable": false,
      "stateMutability": "nonpayable",
      "type": "constructor"
    },
    {
      "anonymous": false,
      "inputs": [
        {
          "indexed": false,
          "internalType": "uint256",
          "name": "id",
          "type": "uint256"
        },
        {
          "indexed": false,
          "internalType": "string",
          "name": "content",
          "type": "string"
        },
        {
          "indexed": false,
          "internalType": "uint256",
          "name": "donationAmount",
          "type": "uint256"
        },
        {
          "indexed": false,
          "internalType": "address payable",
          "name": "author",
          "type": "address"
        }
      ],
      "name": "PostCreated",
      "type": "event"
    },
    {
      "anonymous": false,
      "inputs": [
        {
          "indexed": false,
          "internalType": "uint256",
          "name": "id",
          "type": "uint256"
        },
        {
          "indexed": false,
          "internalType": "string",
          "name": "content",
          "type": "string"
        },
        {
          "indexed": false,
          "internalType": "uint256",
          "name": "donationAmount",
          "type": "uint256"
        },
        {
          "indexed": false,
          "internalType": "address payable",
          "name": "author",
          "type": "address"
        }
      ],
      "name": "PostDeleted",
      "type": "event"
    },
    {
      "anonymous": false,
      "inputs": [
        {
          "indexed": false,
          "internalType": "uint256",
          "name": "id",
          "type": "uint256"
        },
        {
          "indexed": false,
          "internalType": "string",
          "name": "content",
          "type": "string"
        },
        {
          "indexed": false,
          "internalType": "uint256",
          "name": "donationAmount",
          "type": "uint256"
        },
        {
          "indexed": false,
          "internalType": "address payable",
          "name": "author",
          "type": "address"
        }
      ],
      "name": "PostDonated",
      "type": "event"
    },
    {
      "constant": true,
      "inputs": [],
      "name": "name",
      "outputs": [
        {
          "internalType": "string",
          "name": "",
          "type": "string"
        }
      ],
      "payable": false,
      "stateMutability": "view",
      "type": "function"
    },
    {
      "constant": true,
      "inputs": [],
      "name": "postCount",
      "outputs": [
        {
          "internalType": "uint256",
          "name": "",
          "type": "uint256"
        }
      ],
      "payable": false,
      "stateMutability": "view",
      "type": "function"
    },
    {
      "constant": true,
      "inputs": [
        {
          "internalType": "uint256",
          "name": "",
          "type": "uint256"
        }
      ],
      "name": "posts",
      "outputs": [
        {
          "internalType": "uint256",
          "name": "id",
          "type": "uint256"
        },
        {
          "internalType": "string",
          "name": "content",
          "type": "string"
        },
        {
          "internalType": "uint256",
          "name": "donationAmount",
          "type": "uint256"
        },
        {
          "internalType": "address payable",
          "name": "author",
          "type": "address"
        },
        {
          "internalType": "bool",
          "name": "isValid",
          "type": "bool"
        }
      ],
      "payable": false,
      "stateMutability": "view",
      "type": "function"
    },
    {
      "constant": false,
      "inputs": [
        {
          "internalType": "uint256",
          "name": "_id",
          "type": "uint256"
        }
      ],
      "name": "getPostDonators",
      "outputs": [
        {
          "internalType": "address[]",
          "name": "",
          "type": "address[]"
        }
      ],
      "payable": false,
      "stateMutability": "nonpayable",
      "type": "function"
    },
    {
      "constant": false,
      "inputs": [
        {
          "internalType": "uint256",
          "name": "_id",
          "type": "uint256"
        }
      ],
      "name": "getPostDonations",
      "outputs": [
        {
          "internalType": "uint256[]",
          "name": "",
          "type": "uint256[]"
        }
      ],
      "payable": false,
      "stateMutability": "nonpayable",
      "type": "function"
    },
    {
      "constant": false,
      "inputs": [
        {
          "internalType": "string",
          "name": "_content",
          "type": "string"
        }
      ],
      "name": "createPost",
      "outputs": [],
      "payable": false,
      "stateMutability": "nonpayable",
      "type": "function"
    },
    {
      "constant": false,
      "inputs": [
        {
          "internalType": "uint256",
          "name": "_id",
          "type": "uint256"
        }
      ],
      "name": "donatePost",
      "outputs": [],
      "payable": true,
      "stateMutability": "payable",
      "type": "function"
    },
    {
      "constant": false,
      "inputs": [
        {
          "internalType": "uint256",
          "name": "_id",
          "type": "uint256"
        }
      ],
      "name": "deletePost",
      "outputs": [],
      "payable": false,
      "stateMutability": "nonpayable",
      "type": "function"
    }
  ],
  "bytecode": "0x608060405260006001553480156200001657600080fd5b506040518060400160405280601081526020017f446f6e6174696f6e204e6574776f726b0000000000000000000000000000000081525060009080519060200190620000649291906200006b565b506200011a565b828054600181600116156101000203166002900490600052602060002090601f016020900481019282601f10620000ae57805160ff1916838001178555620000df565b82800160010185558215620000df579182015b82811115620000de578251825591602001919060010190620000c1565b5b509050620000ee9190620000f2565b5090565b6200011791905b8082111562000113576000816000905550600101620000f9565b5090565b90565b611507806200012a6000396000f3fe60806040526004361061007b5760003560e01c8063432b72671161004e578063432b7267146102765780637cd36148146102a4578063a4245e6714610334578063c7303c61146103c45761007b565b806306fdde0314610080578063094cd5ee146101105780630b1e7f831461014b57806317906c2e1461024b575b600080fd5b34801561008c57600080fd5b5061009561048c565b6040518080602001828103825283818151815260200191508051906020019080838360005b838110156100d55780820151818401526020810190506100ba565b50505050905090810190601f1680156101025780820380516001836020036101000a031916815260200191505b509250505060405180910390f35b34801561011c57600080fd5b506101496004803603602081101561013357600080fd5b810190808035906020019092919050505061052a565b005b34801561015757600080fd5b506101846004803603602081101561016e57600080fd5b81019080803590602001909291905050506109a2565b60405180868152602001806020018581526020018473ffffffffffffffffffffffffffffffffffffffff1673ffffffffffffffffffffffffffffffffffffffff16815260200183151515158152602001828103825286818151815260200191508051906020019080838360005b8381101561020c5780820151818401526020810190506101f1565b50505050905090810190601f1680156102395780820380516001836020036101000a031916815260200191505b50965050505050505060405180910390f35b34801561025757600080fd5b50610260610a9d565b6040518082815260200191505060405180910390f35b6102a26004803603602081101561028c57600080fd5b8101908080359060200190929190505050610aa3565b005b3480156102b057600080fd5b506102dd600480360360208110156102c757600080fd5b8101908080359060200190929190505050610f0d565b6040518080602001828103825283818151815260200191508051906020019060200280838360005b83811015610320578082015181840152602081019050610305565b505050509050019250505060405180910390f35b34801561034057600080fd5b5061036d6004803603602081101561035757600080fd5b8101908080359060200190929190505050610fb1565b6040518080602001828103825283818151815260200191508051906020019060200280838360005b838110156103b0578082015181840152602081019050610395565b505050509050019250505060405180910390f35b3480156103d057600080fd5b5061048a600480360360208110156103e757600080fd5b810190808035906020019064010000000081111561040457600080fd5b82018360208201111561041657600080fd5b8035906020019184600183028401116401000000008311171561043857600080fd5b91908080601f016020809104026020016040519081016040528093929190818152602001838380828437600081840152601f19601f82011690508083019250505050505050919291929050505061101f565b005b60008054600181600116156101000203166002900480601f0160208091040260200160405190810160405280929190818152602001828054600181600116156101000203166002900480156105225780601f106104f757610100808354040283529160200191610522565b820191906000526020600020905b81548152906001019060200180831161050557829003601f168201915b505050505081565b60008111801561053c57506001548111155b61054557600080fd5b61054d6112be565b600260008381526020019081526020016000206040518060e001604052908160008201548152602001600182018054600181600116156101000203166002900480601f01602080910402602001604051908101604052809291908181526020018280546001816001161561010002031660029004801561060e5780601f106105e35761010080835404028352916020019161060e565b820191906000526020600020905b8154815290600101906020018083116105f157829003601f168201915b50505050508152602001600282015481526020016003820160009054906101000a900473ffffffffffffffffffffffffffffffffffffffff1673ffffffffffffffffffffffffffffffffffffffff1673ffffffffffffffffffffffffffffffffffffffff1681526020016003820160149054906101000a900460ff161515151581526020016004820180548060200260200160405190810160405280929190818152602001828054801561071757602002820191906000526020600020905b8160009054906101000a900473ffffffffffffffffffffffffffffffffffffffff1673ffffffffffffffffffffffffffffffffffffffff16815260200190600101908083116106cd575b505050505081526020016005820180548060200260200160405190810160405280929190818152602001828054801561076f57602002820191906000526020600020905b81548152602001906001019080831161075b575b50505050508152505090506000816060015190508073ffffffffffffffffffffffffffffffffffffffff163373ffffffffffffffffffffffffffffffffffffffff16146107bb57600080fd5b60008260800190151590811515815250508160026000858152602001908152602001600020600082015181600001556020820151816001019080519060200190610806929190611313565b506040820151816002015560608201518160030160006101000a81548173ffffffffffffffffffffffffffffffffffffffff021916908373ffffffffffffffffffffffffffffffffffffffff16021790555060808201518160030160146101000a81548160ff02191690831515021790555060a0820151816004019080519060200190610894929190611393565b5060c08201518160050190805190602001906108b192919061141d565b509050507f6782869369efa38dc617b530cdeb3f7fde73658b16e60670ca4cfcc7d3ecb7a983836020015184604001518460405180858152602001806020018481526020018373ffffffffffffffffffffffffffffffffffffffff1673ffffffffffffffffffffffffffffffffffffffff168152602001828103825285818151815260200191508051906020019080838360005b83811015610960578082015181840152602081019050610945565b50505050905090810190601f16801561098d5780820380516001836020036101000a031916815260200191505b509550505050505060405180910390a1505050565b6002602052806000526040600020600091509050806000015490806001018054600181600116156101000203166002900480601f016020809104026020016040519081016040528092919081815260200182805460018160011615610100020316600290048015610a545780601f10610a2957610100808354040283529160200191610a54565b820191906000526020600020905b815481529060010190602001808311610a3757829003601f168201915b5050505050908060020154908060030160009054906101000a900473ffffffffffffffffffffffffffffffffffffffff16908060030160149054906101000a900460ff16905085565b60015481565b600081118015610ab557506001548111155b610abe57600080fd5b610ac66112be565b600260008381526020019081526020016000206040518060e001604052908160008201548152602001600182018054600181600116156101000203166002900480601f016020809104026020016040519081016040528092919081815260200182805460018160011615610100020316600290048015610b875780601f10610b5c57610100808354040283529160200191610b87565b820191906000526020600020905b815481529060010190602001808311610b6a57829003601f168201915b50505050508152602001600282015481526020016003820160009054906101000a900473ffffffffffffffffffffffffffffffffffffffff1673ffffffffffffffffffffffffffffffffffffffff1673ffffffffffffffffffffffffffffffffffffffff1681526020016003820160149054906101000a900460ff1615151515815260200160048201805480602002602001604051908101604052809291908181526020018280548015610c9057602002820191906000526020600020905b8160009054906101000a900473ffffffffffffffffffffffffffffffffffffffff1673ffffffffffffffffffffffffffffffffffffffff1681526020019060010190808311610c46575b5050505050815260200160058201805480602002602001604051908101604052809291908181526020018280548015610ce857602002820191906000526020600020905b815481526020019060010190808311610cd4575b50505050508152505090506000816060015190508073ffffffffffffffffffffffffffffffffffffffff166108fc349081150290604051600060405180830381858888f19350505050158015610d42573d6000803e3d6000fd5b50348260400151016002600085815260200190815260200160002060020181905550600260008481526020019081526020016000206004013390806001815401808255809150509060018203906000526020600020016000909192909190916101000a81548173ffffffffffffffffffffffffffffffffffffffff021916908373ffffffffffffffffffffffffffffffffffffffff16021790555050600260008481526020019081526020016000206005013490806001815401808255809150509060018203906000526020600020016000909192909190915055507f72d8ee1b45a129abc59183cf31e041f2657c7e3fb29d77d47b09bc5e6d37dda6600154836020015184604001518460405180858152602001806020018481526020018373ffffffffffffffffffffffffffffffffffffffff1673ffffffffffffffffffffffffffffffffffffffff168152602001828103825285818151815260200191508051906020019080838360005b83811015610ecb578082015181840152602081019050610eb0565b50505050905090810190601f168015610ef85780820380516001836020036101000a031916815260200191505b509550505050505060405180910390a1505050565b606060026000838152602001908152602001600020600401805480602002602001604051908101604052809291908181526020018280548015610fa557602002820191906000526020600020905b8160009054906101000a900473ffffffffffffffffffffffffffffffffffffffff1673ffffffffffffffffffffffffffffffffffffffff1681526020019060010190808311610f5b575b50505050509050919050565b60606002600083815260200190815260200160002060050180548060200260200160405190810160405280929190818152602001828054801561101357602002820191906000526020600020905b815481526020019060010190808311610fff575b50505050509050919050565b600081511161102d57600080fd5b6001600081548092919060010191905055506040518060e001604052806001548152602001828152602001600081526020013373ffffffffffffffffffffffffffffffffffffffff16815260200160011515815260200160006040519080825280602002602001820160405280156110b45781602001602082028038833980820191505090505b50815260200160006040519080825280602002602001820160405280156110ea5781602001602082028038833980820191505090505b50815250600260006001548152602001908152602001600020600082015181600001556020820151816001019080519060200190611129929190611313565b506040820151816002015560608201518160030160006101000a81548173ffffffffffffffffffffffffffffffffffffffff021916908373ffffffffffffffffffffffffffffffffffffffff16021790555060808201518160030160146101000a81548160ff02191690831515021790555060a08201518160040190805190602001906111b7929190611393565b5060c08201518160050190805190602001906111d492919061141d565b509050507fc66336337a24e513f909b3b25119854dba8385d51307dbc7d31d1b2805e19c7e6001548260003360405180858152602001806020018481526020018373ffffffffffffffffffffffffffffffffffffffff1673ffffffffffffffffffffffffffffffffffffffff168152602001828103825285818151815260200191508051906020019080838360005b8381101561127e578082015181840152602081019050611263565b50505050905090810190601f1680156112ab5780820380516001836020036101000a031916815260200191505b509550505050505060405180910390a150565b6040518060e00160405280600081526020016060815260200160008152602001600073ffffffffffffffffffffffffffffffffffffffff16815260200160001515815260200160608152602001606081525090565b828054600181600116156101000203166002900490600052602060002090601f016020900481019282601f1061135457805160ff1916838001178555611382565b82800160010185558215611382579182015b82811115611381578251825591602001919060010190611366565b5b50905061138f919061146a565b5090565b82805482825590600052602060002090810192821561140c579160200282015b8281111561140b5782518260006101000a81548173ffffffffffffffffffffffffffffffffffffffff021916908373ffffffffffffffffffffffffffffffffffffffff160217905550916020019190600101906113b3565b5b509050611419919061148f565b5090565b828054828255906000526020600020908101928215611459579160200282015b8281111561145857825182559160200191906001019061143d565b5b509050611466919061146a565b5090565b61148c91905b80821115611488576000816000905550600101611470565b5090565b90565b6114cf91905b808211156114cb57600081816101000a81549073ffffffffffffffffffffffffffffffffffffffff021916905550600101611495565b5090565b9056fea265627a7a7231582074c4d7ca8f1d79e33bf1be13f65a8f9a7a0a2731e3196f1d2ea7ff8b3e6a3be964736f6c63430005100032",
  "source": "pragma solidity ^0.5.0;\n\ncontract DonatePlatform {\n    string public name;\n    uint public postCount = 0;\n    mapping(uint => Post) public posts;\n\n    struct Post {\n        uint id;\n        string content;\n        uint donationAmount;\n        address payable author;\n        bool isValid;\n        address[] donators; //the \"free\" getter you're using doesn't support the indexed value so it just leaves it out\n        uint[] donations;\n    }\n\n    event PostCreated(\n        uint id,\n        string content,\n        uint donationAmount,\n        address payable author\n    );\n\n    event PostDonated(\n        uint id,\n        string content,\n        uint donationAmount,\n        address payable author\n    );\n\n    event PostDeleted(\n        uint id,\n        string content,\n        uint donationAmount,\n        address payable author\n    );\n\n    constructor() public {\n        name = \"Donation Network\";\n    }\n\n    function getPostDonators(uint256 _id) public returns (address[] memory) {\n        return posts[_id].donators;\n    }\n\n    function getPostDonations(uint256 _id) public returns(uint[] memory) {\n        return posts[_id].donations;\n    }\n\n    function createPost(string memory _content) public {\n        // Require valid content\n        require(bytes(_content).length > 0);\n        // Increment the post count\n        postCount ++;\n        // Create the post\n        posts[postCount] = Post(postCount, _content, 0, msg.sender, true, new address[](0), new uint[](0));\n        // Trigger event\n        emit PostCreated(postCount, _content, 0, msg.sender);\n    }\n\n    function donatePost(uint _id) public payable {\n        // Make sure the id is valid\n        require(_id > 0 && _id <= postCount);\n        // Fetch the post\n        Post memory _post = posts[_id];\n        // Fetch the author\n        address payable _author = _post.author;\n        // Pay the author by sending them Ether\n        address(_author).transfer(msg.value);\n        // // Incremet the donate amount\n        // _post.donationAmount = _post.donationAmount + msg.value;\n        // _post.donator.push(msg.sender);\n        // // Update the post\n        // posts[_id] = _post;\n        posts[_id].donationAmount = _post.donationAmount + msg.value;\n        posts[_id].donators.push(msg.sender);\n        posts[_id].donations.push(msg.value);\n        // Trigger an event\n        emit PostDonated(postCount, _post.content, _post.donationAmount, _author);\n    }\n\n    function deletePost(uint _id) public {\n        // Make sure the id is valid\n        require(_id > 0 && _id <= postCount);\n        // Fetch the post\n        Post memory _post = posts[_id];\n        // Fetch the author\n        address payable _author = _post.author;\n        // Make sure the author himself is deleting the post\n        require(msg.sender == _author);\n        _post.isValid = false;\n        posts[_id] = _post;\n        emit PostDeleted(_id, _post.content, _post.donationAmount, _author);\n    }\n}\n",
  "sourcePath": "/Users/zhutao/work/EECE571G/social-network/src/contracts/DonatePlatform.sol",
  "compiler": {
    "name": "solc",
    "version": "0.5.16+commit.9c3226ce.Emscripten.clang"
  },
  "schemaVersion": "3.0.23",
  "updatedAt": "2020-04-04T19:13:58.574Z",
  "networkType": "ethereum",
  "devdoc": {
    "methods": {}
  },
  "userdoc": {
    "methods": {}
  }
}